:100000000C945E000C9486000C9486000C94860080
:100010000C9486000C9486000C9486000C94860048
:100020000C9486000C9486000C9486000C94860038
:100030000C9486000C9486000C9486000C94860028
:100040000C94F9010C9486000C9469020C94430200
:100050000C9486000C9486000C9486000C94860008
:100060000C9486000C948600000000080002010039
:100070000003040700000000000000000000000072
:10008000250028002B0000000000240027002A0083
:10009000040404040404040402020202020203032E
:1000A0000303030301020408102040800102040836
:1000B00010200102040810209B02A20311241FBE7D
:1000C000CFEFD8E0DEBFCDBF21E0AAE1B1E001C0B3
:1000D0001D92A63DB207E1F711E0A0E0B1E0E4E136
:1000E000FCE002C005900D92AA31B107D9F710E0EB
:1000F000CDE5D0E004C02197FE010E94EB03CC3592
:10010000D107C9F70E9415030C94FD050C9400005B
:1001100090E0FC01EC55FF4F2491FC01E057FF4FAC
:100120008491882399F090E0880F991FFC01EA5789
:10013000FF4FA591B491FC01E458FF4F8591949134
:100140008FB7F894EC91E22BEC938FBF089590E079
:10015000FC01E859FF4F2491FC01EC55FF4F34910D
:10016000FC01E057FF4FE491EE23B1F1222339F176
:10017000233091F038F42130A9F0223001F584B514
:100180008F7D12C0273091F02830A1F02430B9F4CF
:10019000809180008F7D03C0809180008F77809355
:1001A00080000DC084B58F7784BD09C08091B000F8
:1001B0008F7703C08091B0008F7D8093B000F0E016
:1001C000EE0FFF1FE458FF4FA591B4918FB7F8943D
:1001D000EC913E2B3C938FBF0895CF92DF92EF922C
:1001E000FF920F931F93CF93DF936C017A018B01E2
:1001F000C0E0D0E0CE15DF0589F0D8016D918D010A
:10020000D601ED91FC910190F081E02DC601099598
:10021000892B11F47E0102C02196ECCFC701DF913A
:10022000CF911F910F91FF90EF90DF90CF900895A5
:10023000089580E090E00895FC01538D448D252FB2
:1002400030E0842F90E0821B930B541710F0CF9670
:10025000089501970895FC01918D828D981761F0A2
:10026000828DDF01A80FB11D5D968C91928D9F5FED
:100270009F73928F90E008958FEF9FEF0895FC0198
:10028000918D828D981731F0828DE80FF11D858D4B
:1002900090E008958FEF9FEF0895FC01918D228DDE
:1002A000892F90E0805C9F4F821B91098F73992763
:1002B000089583E291E00E944D0121E0892B09F429
:1002C00020E0822F0895FC01848DDF01A80FB11D6D
:1002D000A35ABF4F2C91848D90E001968F7399277C
:1002E000848FA689B7892C93A089B1898C91806469
:1002F0008C93938D848D981306C00288F389E02D2A
:1003000080818F7D80830895EF92FF920F931F93DA
:10031000CF93DF93EC0181E0888F9B8D8C8D9813B8
:1003200005C0E889F989808185FD24C0F62E0B8DF2
:1003300010E00F5F1F4F0F731127E02E8C8DE81216
:100340000CC00FB607FCFACFE889F989808185FFD8
:10035000F5CFCE010E946301F1CF8B8DFE01E80F36
:10036000F11DE35AFF4FF0820B8FEA89FB898081F0
:10037000806207C0EE89FF896083E889F9898081FE
:100380008064808381E090E0DF91CF911F910F9195
:10039000FF90EF900895CF93DF93EC01888D882331
:1003A000C9F0EA89FB89808185FD05C0A889B989E2
:1003B0008C9186FD0FC00FB607FCF5CF808185FFBD
:1003C000F2CFA889B9898C9185FFEDCFCE010E942B
:1003D0006301E7CFDF91CF91089580E090E0892B12
:1003E00029F00E94590181110C94000008950E9487
:1003F000E8051F920F920FB60F9211242F933F938F
:100400008F939F93AF93BF9380911F019091200191
:10041000A0912101B091220130911E0123E0230F10
:100420002D3720F40196A11DB11D05C026E8230F2C
:100430000296A11DB11D20931E0180931F01909370
:100440002001A0932101B093220180911A01909183
:100450001B01A0911C01B0911D010196A11DB11DB0
:1004600080931A0190931B01A0931C01B0931D016E
:10047000BF91AF919F918F913F912F910F900FBEA0
:100480000F901F9018951F920F920FB60F92112484
:100490002F933F934F935F936F937F938F939F938C
:1004A000AF93BF93EF93FF9383E291E00E946301C8
:1004B000FF91EF91BF91AF919F918F917F916F913C
:1004C0005F914F913F912F910F900FBE0F901F9012
:1004D00018951F920F920FB60F9211242F938F939E
:1004E0009F93EF93FF93E0913301F091340180816A
:1004F000E0913901F0913A0182FD12C09081809122
:100500003C018F5F8F7320913D01821751F0E09184
:100510003C01F0E0ED5DFE4F958F80933C0101C002
:100520008081FF91EF919F918F912F910F900FBE3E
:100530000F901F901895CF93DF9310922601109281
:10054000250188EE93E0A0E0B0E08093270190932E
:100550002801A0932901B0932A018AE091E09093A9
:1005600024018093230185EC90E0909330018093E7
:100570002F0184EC90E0909332018093310180EC64
:1005800090E0909334018093330181EC90E090935C
:1005900036018093350182EC90E09093380180938E
:1005A000370186EC90E090933A01809339011092E4
:1005B0003C0110923D0110923E0110923F01C0ECAF
:1005C000D1E0198218821B821A821D821C8261E08E
:1005D00070E080E090E00E941E05009759F099833A
:1005E00088831B821A822C813D81232BB9F4FC0164
:1005F000108214C088819981009711F00E948604AE
:10060000198218821D821C821B821A822696F1E0B2
:10061000C23DDF07B1F6DF91CF9108951D821C82A4
:1006200068E171E00E94F605F1CF789484B58260AC
:1006300084BD84B5816084BD85B5826085BD85B586
:10064000816085BD80916E00816080936E00109204
:10065000810080918100826080938100809181007F
:100660008160809381008091800081608093800010
:100670008091B10084608093B1008091B00081606E
:100680008093B00080917A00846080937A0080919A
:100690007A00826080937A0080917A0081608093F2
:1006A0007A0080917A00806880937A001092C1006D
:1006B000E0913301F091340182E08083E0912F01D9
:1006C000F09130011082E0913101F09132018FEC14
:1006D000808310923B01E0913701F091380186E070
:1006E0008083E0913501F0913601808180618083C3
:1006F000E0913501F0913601808188608083E0913E
:100700003501F0913601808180688083E091350168
:10071000F091360180818F7D80838CE00E9488007B
:100720008BE00E9488008AE00E9488008CE00E9492
:10073000A7008BE00E94A7008AE00E94A7000E9409
:10074000ED01F4CFCF93DF93C0ECD1E08C859D8594
:100750000E9486048E819F810E94860488819981EF
:10076000DF91CF910C9486042F923F924F925F922B
:100770006F927F928F929F92AF92BF92CF92DF92B1
:10078000EF92FF920F931F93CF93DF93CDB7DEB716
:10079000CA1BDB0B0FB6F894DEBF0FBECDBF0994AA
:1007A0002A88398848885F846E847D848C849B8401
:1007B000AA84B984C884DF80EE80FD800C811B810F
:1007C000AA81B981CE0FD11D0FB6F894DEBF0FBE3E
:1007D000CDBFED010895EE0FFF1F0590F491E02DC0
:1007E0000994CF93DF938230910510F482E090E07A
:1007F000E091D401F091D50120E030E0C0E0D0E0FC
:10080000309711F14081518148175907C0F04817BE
:10081000590761F482819381209719F09B838A8321
:100820002BC09093D5018093D40126C021153105AA
:1008300019F04217530718F49A01BE01DF01EF01C6
:100840000280F381E02DDCCF2115310509F1281B51
:10085000390B2430310590F412968D919C911397A9
:100860006115710521F0FB019383828304C090938D
:10087000D5018093D401FD01329644C0FD01E20F01
:10088000F31F81939193225031092D933C933AC0E9
:100890002091D2013091D301232B41F42091020108
:1008A000309103013093D3012093D20120910001B4
:1008B000309101012115310541F42DB73EB740912A
:1008C000040150910501241B350BE091D201F091F8
:1008D000D301E217F307A0F42E1B3F0B28173907AB
:1008E00078F0AC014E5F5F4F2417350748F04E0F8C
:1008F0005F1F5093D3014093D2018193919302C023
:10090000E0E0F0E0CF01DF91CF9108950F931F93C6
:10091000CF93DF93009709F48CC0FC0132971382C8
:1009200012820091D4011091D5010115110581F4B5
:1009300020813181820F931F2091D2013091D30108
:100940002817390779F5F093D301E093D20171C0EC
:10095000D80140E050E0AE17BF0750F412962D9139
:100960003C911397AD012115310509F1D901F3CF60
:100970009D01DA013383228360817181860F971F85
:100980008217930769F4EC0128813981260F371FFC
:100990002E5F3F4F318320838A819B8193838283A3
:1009A000452B29F4F093D501E093D40142C013966E
:1009B000FC93EE931297ED01499159919E01240FFA
:1009C000351FE217F30771F480819181840F951F21
:1009D000029611969C938E938281938113969C9399
:1009E0008E931297E0E0F0E0D80112968D919C91E1
:1009F0001397009719F0F8018C01F6CF8D919C9117
:100A000098012E5F3F4F820F931F2091D2013091AA
:100A1000D3012817390769F4309729F41092D501CA
:100A20001092D40102C0138212821093D30100935A
:100A3000D201DF91CF911F910F910895A0E0B0E016
:100A4000E4E2F5E00C94B803EC01009721F4CB014B
:100A50000E94F103B8C0FC01E60FF71F9C01225071
:100A60003109E217F30708F4ACC0D9010D911C91CC
:100A7000119706171707B0F00530110508F49FC04D
:100A8000C80104978617970708F499C00250110906
:100A9000061B170B019311936D937C93CF010E945A
:100AA00086048DC05B01A01AB10A4C01800E911E14
:100AB000A091D401B091D50140E050E0E12CF12C9F
:100AC000109709F44AC0A815B905D1F56D907C902E
:100AD0001197630182E0C80ED11CCA14DB0480F1B7
:100AE000A3014A195B096A0182E0C80ED11C129663
:100AF000BC9012971396AC91B5E0CB16D10440F0A0
:100B0000B282A38351834083D9016D937C930AC041
:100B10000E5F1F4FC301800F911FF90191838083E6
:100B2000EB2DFA2FE114F10431F0D7011396FC9369
:100B3000EE93129744C0F093D501E093D4013FC0E7
:100B40008D919C9111974817590708F4AC017D01CC
:100B500012960D90BC91A02DB3CF8091D2019091AF
:100B6000D30188159905E1F446175707C8F4809119
:100B7000000190910101009741F48DB79EB740911B
:100B8000040150910501841B950BE817F907C8F47F
:100B9000F093D301E093D201F901718360830FC018
:100BA000CB010E94F1037C01009759F0A801BE011E
:100BB0000E94ED05CE010E948604C70104C0CE014B
:100BC00002C080E090E0CDB7DEB7EEE00C94D40335
:100BD00081E090E0F8940C94FD05FB01DC0102C07B
:100BE00001900D9241505040D8F70895FB01DC016F
:100BF00001900D920020E1F7089510E0CDE5D0E0DE
:100C000004C0FE010E94EB032196CE35D107C9F73F
:040C1000F894FFCF86
:100C14000000D6018000000000008401ED001C01EA
:0A0C2400CB014D012B013F01000040
:00000001FF
